:100000000C942A001895000018950000189500001F
:10001000189500001895000018950000189500002C
:10002000189500001895000018950000189500001C
:10003000189500001895000018950000189500000C
:1000400018950000189500001895000018950000FC
:10005000189500008FE58DBFC8E3E0E24E2E84E0E6
:100060008EBFD4E0F4E05F2EA89584B7082E877F7A
:1000700084BF88E1992781BD91BDEEEFF3E0A0E652
:10008000B0E088278D933197E9F76624BF988FEF0A
:1000900084BBC79A70E275BB91E085B3BB27A8E12A
:1000A0000E94840085BB84E690E00E947500B799A9
:1000B0000C944C0091E085B3BB27A8E10E948E0010
:1000C00085BB84E690E00E947500B7990C945A00B5
:1000D0000C944C00F894FFCF3197F1F70895689491
:1000E00062F80895E89462F80895EF93FF93EE277D
:1000F000E82BE92B31F0E8EEF3E03197F1F70197C7
:10010000D1F7FF91EF910895903039F08C91880FDD
:1001100008F481609A95D9F78C930895903039F05E
:100120008C91869508F480689A95D9F78C930895F8
:00000001FF
